{
  "_format": "hh-sol-artifact-1",
  "contractName": "InsuranceSettlement",
  "sourceName": "contracts/InsuranceSettlement.sol",
  "abi": [
    {
      "inputs": [],
      "stateMutability": "nonpayable",
      "type": "constructor"
    },
    {
      "inputs": [],
      "name": "checkBalance",
      "outputs": [
        {
          "internalType": "uint256",
          "name": "",
          "type": "uint256"
        }
      ],
      "stateMutability": "view",
      "type": "function"
    },
    {
      "inputs": [],
      "name": "owner",
      "outputs": [
        {
          "internalType": "address",
          "name": "",
          "type": "address"
        }
      ],
      "stateMutability": "view",
      "type": "function"
    },
    {
      "inputs": [
        {
          "internalType": "address payable",
          "name": "_to",
          "type": "address"
        },
        {
          "internalType": "uint256",
          "name": "_amount",
          "type": "uint256"
        }
      ],
      "name": "settleClaim",
      "outputs": [],
      "stateMutability": "nonpayable",
      "type": "function"
    },
    {
      "stateMutability": "payable",
      "type": "receive"
    }
  ],
  "bytecode": "0x608060405234801561001057600080fd5b50336000806101000a81548173ffffffffffffffffffffffffffffffffffffffff021916908373ffffffffffffffffffffffffffffffffffffffff1602179055506104b5806100606000396000f3fe6080604052600436106100385760003560e01c80638da5cb5b146100445780639da92c4e1461006f578063c71daccb146100985761003f565b3661003f57005b600080fd5b34801561005057600080fd5b506100596100c3565b604051610066919061024c565b60405180910390f35b34801561007b57600080fd5b50610096600480360381019061009191906102e0565b6100e7565b005b3480156100a457600080fd5b506100ad610203565b6040516100ba919061032f565b60405180910390f35b60008054906101000a900473ffffffffffffffffffffffffffffffffffffffff1681565b60008054906101000a900473ffffffffffffffffffffffffffffffffffffffff1673ffffffffffffffffffffffffffffffffffffffff163373ffffffffffffffffffffffffffffffffffffffff1614610175576040517f08c379a000000000000000000000000000000000000000000000000000000000815260040161016c906103cd565b60405180910390fd5b804710156101b8576040517f08c379a00000000000000000000000000000000000000000000000000000000081526004016101af9061045f565b60405180910390fd5b8173ffffffffffffffffffffffffffffffffffffffff166108fc829081150290604051600060405180830381858888f193505050501580156101fe573d6000803e3d6000fd5b505050565b600047905090565b600073ffffffffffffffffffffffffffffffffffffffff82169050919050565b60006102368261020b565b9050919050565b6102468161022b565b82525050565b6000602082019050610261600083018461023d565b92915050565b600080fd5b60006102778261020b565b9050919050565b6102878161026c565b811461029257600080fd5b50565b6000813590506102a48161027e565b92915050565b6000819050919050565b6102bd816102aa565b81146102c857600080fd5b50565b6000813590506102da816102b4565b92915050565b600080604083850312156102f7576102f6610267565b5b600061030585828601610295565b9250506020610316858286016102cb565b9150509250929050565b610329816102aa565b82525050565b60006020820190506103446000830184610320565b92915050565b600082825260208201905092915050565b7f4f6e6c7920746865206f776e65722063616e20706572666f726d20746869732060008201527f616374696f6e2e00000000000000000000000000000000000000000000000000602082015250565b60006103b760278361034a565b91506103c28261035b565b604082019050919050565b600060208201905081810360008301526103e6816103aa565b9050919050565b7f496e73756666696369656e742062616c616e636520696e20636f6e747261637460008201527f2e00000000000000000000000000000000000000000000000000000000000000602082015250565b600061044960218361034a565b9150610454826103ed565b604082019050919050565b600060208201905081810360008301526104788161043c565b905091905056fea264697066735822122014d953f5b5137526c472692d4a35bd6a5562729eb877c53a6fc7c1ca7eb16ceb64736f6c63430008140033",
  "linkReferences": {},
  "deployedLinkReferences": {}
}